:100000000C9462000C948A000C948A000C948A0070
:100010000C948A000C948A000C948A000C948A0038
:100020000C948A000C948A000C948A000C948A0028
:100030000C948A000C948A000C948A000C948A0018
:100040000C94F2020C948A000C948A000C948A009E
:100050000C948A000C948A000C948A000C948A00F8
:100060000C948A000C948A000000000024002700F1
:100070002A0000000000250028002B0000000000DE
:1000800023002600290004040404040404040202DA
:100090000202020203030303030301020408102007
:1000A0004080010204081020010204081020000012
:1000B0000008000201000003040700000000000027
:1000C0000000800411241FBECFEFD8E0DEBFCDBFFB
:1000D00011E0A0E0B1E0E6E5F9E002C005900D9284
:1000E000A032B107D9F721E0A0E2B1E001C01D9232
:1000F000A534B207E1F710E0C2E6D0E004C02197D2
:10010000FE010E949E04C136D107C9F70E943C033C
:100110000C94A9040C940000CF92DF92EF92FF920E
:100120000F931F93CF93DF936C017A018B01C0E093
:10013000D0E0CE15DF0589F0D8016D918D01D60193
:10014000ED91FC910190F081E02DC6010995892B7C
:1001500011F47E0102C02196ECCFC701DF91CF914F
:100160001F910F91FF90EF90DF90CF900895833013
:1001700081F028F4813099F08230A1F00895873021
:10018000A9F08830B9F08430D1F4809180008F7D5F
:1001900003C0809180008F7780938000089584B59C
:1001A0008F7702C084B58F7D84BD08958091B000A3
:1001B0008F7703C08091B0008F7D8093B000089549
:1001C000CF93DF93282F30E0F901E255FF4F849160
:1001D000F901E656FF4FD491F901EA57FF4FC49158
:1001E000CC2391F081110E94B700EC2FF0E0EE0FCC
:1001F000FF1FE458FF4FA591B491EC91ED2381E0EE
:1002000090E021F480E002C080E090E0DF91CF91A7
:1002100008951F93CF93DF93282F30E0F901E25523
:10022000FF4F8491F901E656FF4FD491F901EA5747
:10023000FF4FC491CC23C9F0162F81110E94B70043
:10024000EC2FF0E0EE0FFF1FEE58FF4FA591B49199
:100250008FB7F894111105C09C91ED2FE095E9231B
:1002600002C0EC91ED2BEC938FBFDF91CF911F91EA
:100270000895CF93DF9390E0FC01E656FF4F249161
:10028000FC01EA57FF4F8491882361F190E0880FC9
:10029000991FFC01E859FF4FC591D491FC01EE581C
:1002A000FF4FA591B491611109C09FB7F89488815F
:1002B000209582238883EC912E230BC0623061F459
:1002C0009FB7F8943881822F809583238883EC919F
:1002D0002E2B2C939FBF06C08FB7F894E8812E2B4E
:1002E00028838FBFDF91CF910895CF93DF93EC01E7
:1002F00060E08E810E94090161E08E810E94090107
:1003000060E08E810E9409018BE891E00197F1F78E
:10031000DF91CF910895CF92DF92EF92FF920F93EA
:100320001F93CF93DF937C016C0187E0C80ED11C33
:10033000C0E0D0E0062F10E0B8010C2E02C0759589
:1003400067950A94E2F76170F60181916F010E944E
:1003500009012196C430D10579F7C701DF91CF910A
:100360001F910F91FF90EF90DF90CF900C9475014B
:10037000CF92DF92EF92FF920F931F93CF93DF9371
:10038000EC01F62E642F8C810E9409018D818F3F34
:1003900019F060E00E9409018F850F2D10E084FFA5
:1003A00025C06E0187E0C80ED11CE12CF12CB801EC
:1003B0000E2C02C0759567950A94E2F76170F601FC
:1003C00081916F010E940901FFEFEF1AFF0A88E097
:1003D000E816F10461F7CE01DF91CF911F910F91E3
:1003E000FF90EF90DF90CF900C947501B80184E0FE
:1003F000759567958A95E1F7CE010E948B016F2D67
:10040000CE01DF91CF911F910F91FF90EF90DF9080
:10041000CF900C948B0141E00E94B80181E090E004
:10042000089540E00C94B801EF92FF920F931F9350
:10043000CF93DF93EC01623018F08F8588608F874F
:100440006B8B1C8A80E48D8B80E18E8B80E58F8B9B
:1004500061E08C810E9439018D818F3F19F061E04C
:100460000E94390161E08E810E9439017E0187E09E
:10047000E80EF11C00E010E08F8584FD03C084E0ED
:1004800090E002C088E090E0081719074CF461E0A2
:10049000F70181917F010E9439010F5F1F4FECCF5F
:1004A0008BE39DE00197F1F760E08C810E940901E8
:1004B00060E08E810E9409018D818F3F19F060E01C
:1004C0000E9409016F8564FD1DC063E0CE010E949A
:1004D0008B010BE416E4C8010197F1F763E0CE014C
:1004E0000E948B01C8010197F1F763E0CE010E94E1
:1004F0008B0183E592E00197F1F762E0CE010E9463
:100500008B0116C06062CE010E9411028BE496E45A
:100510000197F1F76F856062CE010E94110283E5B9
:1005200092E00197F1F76F856062CE010E9411029F
:100530006F856062CE010E94110284E0888B6CE0BE
:10054000CE010E94110261E0CE010E9411028BE3F4
:100550009FE10197F1F782E0898B66E0CE01DF91A0
:10056000CF911F910F91FF90EF900C941102843066
:1005700008F083E090914001891710F08FEF890F08
:10058000E82FF0E0E35DFE4F648960688DE291E062
:100590000C941102089580E090E00895CF93DF93CA
:1005A000009779F0FC0101900020E9F73197AF0145
:1005B000481B590BBC018DE291E00E948C00EC01BC
:1005C00002C0C0E0D0E042E050E06CE071E08DE2BB
:1005D00091E00E948C008C0F9D1FDF91CF910895B8
:1005E0000E94A4041F920F920FB60F9211242F9312
:1005F0003F938F939F93AF93BF93809125019091E9
:100600002601A0912701B09128013091240123E017
:10061000230F2D3720F40196A11DB11D05C026E83A
:10062000230F0296A11DB11D209324018093250163
:1006300090932601A0932701B09328018091200177
:1006400090912101A0912201B09123010196A11D59
:10065000B11D8093200190932101A0932201B093BA
:100660002301BF91AF919F918F913F912F910F9057
:100670000FBE0F901F901895789484B5826084BD4A
:1006800084B5816084BD85B5826085BD85B5816096
:1006900085BD80916E00816080936E001092810014
:1006A00080918100826080938100809181008160CF
:1006B0008093810080918000816080938000809190
:1006C000B10084608093B1008091B000816080931C
:1006D000B00080917A00846080937A0080917A00E3
:1006E000826080937A0080917A00816080937A00A2
:1006F00080917A00806880937A001092C10062E055
:100700008DE291E00E94140261E086E00E943901CE
:1007100061E087E00E94390161E088E00E943901D0
:1007200061E089E00E94390160E08AE00E943901BD
:1007300060E08BE00E94390100E010E08AE00E9456
:10074000E000892B71F58BE00E94E000813091057B
:1007500041F520912B0130912C01232B11F5909321
:100760002C0180932B01C6E0D0E08C2FC0FF02C08B
:1007700060E002C061E08C2F0E9409012196CA301E
:10078000D10599F780E00E94B7028FE091E00E94C6
:10079000CE0281E00E94B7028FE091E00E94CE027B
:1007A0002FC08BE00E94E000892BA1F58AE00E9417
:1007B000E0008130910571F52091290130912A01E5
:1007C000232B41F590932A0180932901C6E0D0E0C4
:1007D0008C2FC0FF1CC061E00E94090180E00E94D4
:1007E000B70287E191E00E94CE0281E00E94B70249
:1007F00087E191E00E94CE022196CA30D10541F7EF
:100800000115110509F49ACF0E94000097CF60E00E
:100810008C2FE2CF8BE00E94E000892BA1F58AE0CB
:100820000E94E000892B79F580912B0190912C0199
:10083000892B49F18091290190912A01892B19F185
:1008400061E088E00E94090160E089E00E940901FE
:1008500061E087E00E94090160E086E00E940901F2
:1008600080E00E94B70287E191E00E94CE0281E021
:100870000E94B7028FE091E00E94CE0210922A01FE
:1008800010922901BDCF8BE00E94E000019709F092
:10089000B7CF8AE00E94E000019709F0B1CF8091C4
:1008A0002B0190912C01892B09F4AACF8091290169
:1008B00090912A01892B09F4A3CF60E088E00E947F
:1008C000090161E089E00E94090160E087E00E947F
:1008D000090161E086E00E94090181E00E94B702FF
:1008E00087E191E00E94CE0280E00E94B7028FE093
:1008F00091E00E94CE0210922C0110922B0180CF29
:10090000EDE2F1E01382128284E091E09183808332
:1009100085E084838FEF858384E0868383E087830B
:1009200082E0808781E0818712861386148615868F
:100930001686178661E0CF010C941402EE0FFF1F9C
:100940000590F491E02D099481E090E0F8940C94E6
:06095000A904F894FFCF9A
:10095600000000000B028C00CB02CA020D0A0052F6
:1009660045564552534500464F52574152440000A2
:00000001FF
